:03000000020100FA
:1001000012810C12811CF81201EF12811CFFC394A2
:100110000A600FEF940B602CEF940C605CEF940D71
:10012000607A742B12810212811CF91201EF29F8F6
:10013000743D128102E81201EF74141281121281CF
:100140000C020100742D12810212811CF91201EFC0
:10015000C3997A0030E7057A01F42401F8743D125E
:100160008102BA0105742D128102E81201EF7414A4
:1001700012811212810C0201007478128102128124
:100180001CF91201EF743D128102E889F0A41201FA
:10019000EF741412811212810C020100742F12816B
:1001A0000212811CF91201EFB900170201AE74149A
:1001B00012811212810CE81201EF742F12810202D7
:1001C00001A1743D128102E889F0AAF084A9F0121D
:1001D00001EF7420128102E91201EF742F128102E3
:1001E000EA1201EF741412811212810C02010075DF
:0B01F000F00A84C445F01281042200D4
:00000001FF
